:020000040800F2
:100000006806002099010008A1010008A30100086A
:10001000A5010008A7010008A901000800000000D0
:10002000000000000000000000000000AB0100081C
:10003000AD01000800000000AF010008B101000898
:10004000B3010008B3010008B3010008B3010008C0
:10005000B3010008B3010008B3010008B3010008B0
:10006000B3010008B3010008B3010008B3010008A0
:10007000B3010008B3010008B3010008B301000890
:10008000B3010008B3010008B3010008B301000880
:10009000B3010008B3010008B3010008B301000870
:1000A000B3010008B3010008B3010008B301000860
:1000B000B30100082D050008B3010008B3010008D2
:1000C000B3010008B3010008B3010008B301000840
:1000D000B3010008B3010008B3010008B301000830
:1000E000B3010008B3010008B301000800F002F8F2
:1000F00000F042F814A696E8000CB244B344DA4586
:1001000001D100F039F8BAE80F000FA696E83000E8
:10011000A5EB040504EB0607AAEB0704A7F101070A
:100120004FEA15154FEA3414A4F10104AC4201D38F
:1001300000F022F813F0010F18BFFB1A43F001037F
:1001400000F001F8DBE71847B4040000C404000025
:10015000704700000023002400250026103A28BF25
:1001600078C1FBD8520728BF30C148BF0B60704729
:100170001FB51FBD10B510BD00F031F81146FFF7D7
:10018000F7FF00F005FA00F04FF803B4FFF7F2FFB5
:1001900003BC00F057F800000948804709480047B1
:1001A000FEE7FEE7FEE7FEE7FEE7FEE7FEE7FEE727
:1001B000FEE7FEE704480549054A064B7047000084
:1001C000C5040008ED000008680000206806002053
:1001D000680200206802002070477047704775462B
:1001E00000F02CF8AE4605006946534620F00700A3
:1001F000854618B020B5FFF7DDFFBDE820404FF081
:1002000000064FF000074FF000084FF0000BAC461F
:10021000ACE8C009ACE8C009ACE8C009ACE8C0096A
:1002200021F007018D46704710B50446AFF30080FA
:100230002046BDE81040FFF7A8BF00000048704707
:100240000000002001491820ABBEFEE72600020096
:100250007047000080B541F21C01C4F20201086839
:1002600040F00200086040F22841C4F2000140F270
:10027000CF20088040F22C41C4F2000163200880A6
:1002800040F20C41C4F20001088840F001000880EF
:1002900040F21041C4F20001088820F001000880FB
:1002A0001D2000F05DF940F20041C4F20001088811
:1002B00040F00100088080BD80B500F001F880BDED
:1002C00084B000200390029041F20001C4F20201C8
:1002D000086840F480300860FFE741F20000C4F293
:1002E0000200006800F4003002900398013003908F
:1002F000FFE702990020019039B9FFE70398B0F5B4
:10030000A06018BF01200190FFE70198C0070028F6
:10031000E3D1FFE741F20000C4F20200006880036D
:10032000002803D5FFE70120029002E000200290A0
:10033000FFE70298012851D1FFE742F20001C4F221
:100340000201086840F010000860086820F007000B
:100350000860086840F00200086041F20401C4F23D
:10036000020100910868086008680860086840F4A5
:1003700080600860086820F47C100860086840F419
:10038000E810086041F20001C4F20201086840F080
:1003900080700860FFE741F20000C4F202000068CC
:1003A0008001002801D4FFE7F5E741F20401C4F21F
:1003B0000201086820F003000860086840F00200AD
:1003C0000860FFE741F20400C4F20200006800F098
:1003D0000C00082801D0FFE7F4E700E0FFE704B0D5
:1003E0007047000041F20401C4F20201086840F4C1
:1003F000E0100860086820F48000086041F2000105
:10040000C4F20201086840F480300860FFE741F25E
:100410000000C4F2020000688003002801D4FFE756
:10042000F5E741F20401C4F20201086840F48030AB
:10043000086041F20001C4F20201086840F08070D7
:100440000860FFE741F20000C4F20200006880018A
:10045000002801D4FFE7F5E742F20001C4F20201EF
:10046000086840F01100086041F20401C4F2020182
:10047000086820F003000860086840F00200086087
:10048000FFE741F20400C4F20200006800F00C0033
:10049000082801D0FFE7F4E741F20401C4F20201A9
:1004A00008680860086840F48060086008680860B0
:1004B000086840F4004008600421C4F201010868A3
:1004C0000860704780B541F20002C4F20202106871
:1004D00040F00100106041F20401C4F2020108681A
:1004E0000023CFF6FF031840086010684FF6FF7333
:1004F000CFF6F66318401060106820F4802010607A
:10050000086820F4FE00086041F20801C4F202010C
:100510004FF41F000860FFF7CFFE4EF60851CEF2F1
:1005200000014FF00060086080BD000040F2104004
:10053000C4F200000088C00780B1FFE740F260010C
:10054000C2F2000108680130086040F21041C4F2B4
:100550000001088820F001000880FFE770470000D4
:1005600081B08DF803009DF9030000280ED4FFE749
:100570009DF9031001F01F02012090404A094EF23C
:100580000011CEF2000141F82200FFE701B07047F0
:1005900080B582B0002001900090FFF723FFFFF7A5
:1005A00059FE41F21801C4F20201086840F010003F
:1005B000086041F20401C4F2010144F24440C4F273
:1005C00034400860FFE700F013F80099401AB0F5D6
:1005D0007A7F0CD3FFE700F00BF8009041F20C019A
:1005E000C4F20101086880F400500860FFE7EAE700
:1005F00040F26000C2F20000006870470C0600087C
:0C06000000000020680600005401000803
:040000050800019955
:00000001FF
